{
  "_format": "hh-sol-artifact-1",
  "contractName": "NFT",
  "sourceName": "contracts/NFT.sol",
  "abi": [
    {
      "inputs": [],
      "stateMutability": "nonpayable",
      "type": "constructor"
    },
    {
      "anonymous": false,
      "inputs": [
        {
          "indexed": true,
          "internalType": "address",
          "name": "owner",
          "type": "address"
        },
        {
          "indexed": true,
          "internalType": "address",
          "name": "approved",
          "type": "address"
        },
        {
          "indexed": true,
          "internalType": "uint256",
          "name": "tokenId",
          "type": "uint256"
        }
      ],
      "name": "Approval",
      "type": "event"
    },
    {
      "anonymous": false,
      "inputs": [
        {
          "indexed": true,
          "internalType": "address",
          "name": "owner",
          "type": "address"
        },
        {
          "indexed": true,
          "internalType": "address",
          "name": "operator",
          "type": "address"
        },
        {
          "indexed": false,
          "internalType": "bool",
          "name": "approved",
          "type": "bool"
        }
      ],
      "name": "ApprovalForAll",
      "type": "event"
    },
    {
      "anonymous": false,
      "inputs": [
        {
          "indexed": true,
          "internalType": "address",
          "name": "sender",
          "type": "address"
        },
        {
          "indexed": false,
          "internalType": "uint256",
          "name": "token_id",
          "type": "uint256"
        }
      ],
      "name": "NewOwner",
      "type": "event"
    },
    {
      "anonymous": false,
      "inputs": [
        {
          "indexed": true,
          "internalType": "address",
          "name": "previousOwner",
          "type": "address"
        },
        {
          "indexed": true,
          "internalType": "address",
          "name": "newOwner",
          "type": "address"
        }
      ],
      "name": "OwnershipTransferred",
      "type": "event"
    },
    {
      "anonymous": false,
      "inputs": [
        {
          "indexed": true,
          "internalType": "address",
          "name": "from",
          "type": "address"
        },
        {
          "indexed": true,
          "internalType": "address",
          "name": "to",
          "type": "address"
        },
        {
          "indexed": true,
          "internalType": "uint256",
          "name": "tokenId",
          "type": "uint256"
        }
      ],
      "name": "Transfer",
      "type": "event"
    },
    {
      "inputs": [
        {
          "internalType": "address",
          "name": "to",
          "type": "address"
        },
        {
          "internalType": "uint256",
          "name": "tokenId",
          "type": "uint256"
        }
      ],
      "name": "approve",
      "outputs": [],
      "stateMutability": "nonpayable",
      "type": "function"
    },
    {
      "inputs": [
        {
          "internalType": "address",
          "name": "owner",
          "type": "address"
        }
      ],
      "name": "balanceOf",
      "outputs": [
        {
          "internalType": "uint256",
          "name": "",
          "type": "uint256"
        }
      ],
      "stateMutability": "view",
      "type": "function"
    },
    {
      "inputs": [],
      "name": "baseTokenURI",
      "outputs": [
        {
          "internalType": "string",
          "name": "",
          "type": "string"
        }
      ],
      "stateMutability": "view",
      "type": "function"
    },
    {
      "inputs": [],
      "name": "currentTokenId",
      "outputs": [
        {
          "internalType": "uint256",
          "name": "_value",
          "type": "uint256"
        }
      ],
      "stateMutability": "view",
      "type": "function"
    },
    {
      "inputs": [
        {
          "internalType": "uint256",
          "name": "tokenId",
          "type": "uint256"
        }
      ],
      "name": "getApproved",
      "outputs": [
        {
          "internalType": "address",
          "name": "",
          "type": "address"
        }
      ],
      "stateMutability": "view",
      "type": "function"
    },
    {
      "inputs": [
        {
          "internalType": "address",
          "name": "owner",
          "type": "address"
        },
        {
          "internalType": "address",
          "name": "operator",
          "type": "address"
        }
      ],
      "name": "isApprovedForAll",
      "outputs": [
        {
          "internalType": "bool",
          "name": "",
          "type": "bool"
        }
      ],
      "stateMutability": "view",
      "type": "function"
    },
    {
      "inputs": [
        {
          "internalType": "address",
          "name": "recipient",
          "type": "address"
        }
      ],
      "name": "mintTo",
      "outputs": [
        {
          "internalType": "uint256",
          "name": "",
          "type": "uint256"
        }
      ],
      "stateMutability": "nonpayable",
      "type": "function"
    },
    {
      "inputs": [],
      "name": "name",
      "outputs": [
        {
          "internalType": "string",
          "name": "",
          "type": "string"
        }
      ],
      "stateMutability": "view",
      "type": "function"
    },
    {
      "inputs": [],
      "name": "owner",
      "outputs": [
        {
          "internalType": "address",
          "name": "",
          "type": "address"
        }
      ],
      "stateMutability": "view",
      "type": "function"
    },
    {
      "inputs": [
        {
          "internalType": "uint256",
          "name": "tokenId",
          "type": "uint256"
        }
      ],
      "name": "ownerOf",
      "outputs": [
        {
          "internalType": "address",
          "name": "",
          "type": "address"
        }
      ],
      "stateMutability": "view",
      "type": "function"
    },
    {
      "inputs": [],
      "name": "renounceOwnership",
      "outputs": [],
      "stateMutability": "nonpayable",
      "type": "function"
    },
    {
      "inputs": [
        {
          "internalType": "address",
          "name": "from",
          "type": "address"
        },
        {
          "internalType": "address",
          "name": "to",
          "type": "address"
        },
        {
          "internalType": "uint256",
          "name": "tokenId",
          "type": "uint256"
        }
      ],
      "name": "safeTransferFrom",
      "outputs": [],
      "stateMutability": "nonpayable",
      "type": "function"
    },
    {
      "inputs": [
        {
          "internalType": "address",
          "name": "from",
          "type": "address"
        },
        {
          "internalType": "address",
          "name": "to",
          "type": "address"
        },
        {
          "internalType": "uint256",
          "name": "tokenId",
          "type": "uint256"
        },
        {
          "internalType": "bytes",
          "name": "data",
          "type": "bytes"
        }
      ],
      "name": "safeTransferFrom",
      "outputs": [],
      "stateMutability": "nonpayable",
      "type": "function"
    },
    {
      "inputs": [
        {
          "internalType": "address",
          "name": "operator",
          "type": "address"
        },
        {
          "internalType": "bool",
          "name": "approved",
          "type": "bool"
        }
      ],
      "name": "setApprovalForAll",
      "outputs": [],
      "stateMutability": "nonpayable",
      "type": "function"
    },
    {
      "inputs": [
        {
          "internalType": "string",
          "name": "_baseTokenURI",
          "type": "string"
        }
      ],
      "name": "setBaseTokenURI",
      "outputs": [],
      "stateMutability": "nonpayable",
      "type": "function"
    },
    {
      "inputs": [
        {
          "internalType": "bytes4",
          "name": "interfaceId",
          "type": "bytes4"
        }
      ],
      "name": "supportsInterface",
      "outputs": [
        {
          "internalType": "bool",
          "name": "",
          "type": "bool"
        }
      ],
      "stateMutability": "view",
      "type": "function"
    },
    {
      "inputs": [],
      "name": "symbol",
      "outputs": [
        {
          "internalType": "string",
          "name": "",
          "type": "string"
        }
      ],
      "stateMutability": "view",
      "type": "function"
    },
    {
      "inputs": [
        {
          "internalType": "uint256",
          "name": "tokenId",
          "type": "uint256"
        }
      ],
      "name": "tokenURI",
      "outputs": [
        {
          "internalType": "string",
          "name": "",
          "type": "string"
        }
      ],
      "stateMutability": "view",
      "type": "function"
    },
    {
      "inputs": [
        {
          "internalType": "address",
          "name": "from",
          "type": "address"
        },
        {
          "internalType": "address",
          "name": "to",
          "type": "address"
        },
        {
          "internalType": "uint256",
          "name": "tokenId",
          "type": "uint256"
        }
      ],
      "name": "transferFrom",
      "outputs": [],
      "stateMutability": "nonpayable",
      "type": "function"
    },
    {
      "inputs": [
        {
          "internalType": "address",
          "name": "newOwner",
          "type": "address"
        }
      ],
      "name": "transferOwnership",
      "outputs": [],
      "stateMutability": "nonpayable",
      "type": "function"
    }
  ],
  "bytecode": "0x60806040523480156200001157600080fd5b506040518060400160405280600781526020017f506f6b656d6f6e000000000000000000000000000000000000000000000000008152506040518060400160405280600481526020017f504b4d4e0000000000000000000000000000000000000000000000000000000081525081600090816200008f919062000433565b508060019081620000a1919062000433565b505050620000c4620000b8620000eb60201b60201c565b620000f360201b60201c565b6040518060200160405280600081525060089081620000e4919062000433565b506200051a565b600033905090565b6000600660009054906101000a900473ffffffffffffffffffffffffffffffffffffffff16905081600660006101000a81548173ffffffffffffffffffffffffffffffffffffffff021916908373ffffffffffffffffffffffffffffffffffffffff1602179055508173ffffffffffffffffffffffffffffffffffffffff168173ffffffffffffffffffffffffffffffffffffffff167f8be0079c531659141344cd1fd0a4f28419497f9722a3daafe3b4186f6b6457e060405160405180910390a35050565b600081519050919050565b7f4e487b7100000000000000000000000000000000000000000000000000000000600052604160045260246000fd5b7f4e487b7100000000000000000000000000000000000000000000000000000000600052602260045260246000fd5b600060028204905060018216806200023b57607f821691505b602082108103620002515762000250620001f3565b5b50919050565b60008190508160005260206000209050919050565b60006020601f8301049050919050565b600082821b905092915050565b600060088302620002bb7fffffffffffffffffffffffffffffffffffffffffffffffffffffffffffffffff826200027c565b620002c786836200027c565b95508019841693508086168417925050509392505050565b6000819050919050565b6000819050919050565b6000620003146200030e6200030884620002df565b620002e9565b620002df565b9050919050565b6000819050919050565b6200033083620002f3565b620003486200033f826200031b565b84845462000289565b825550505050565b600090565b6200035f62000350565b6200036c81848462000325565b505050565b5b8181101562000394576200038860008262000355565b60018101905062000372565b5050565b601f821115620003e357620003ad8162000257565b620003b8846200026c565b81016020851015620003c8578190505b620003e0620003d7856200026c565b83018262000371565b50505b505050565b600082821c905092915050565b60006200040860001984600802620003e8565b1980831691505092915050565b6000620004238383620003f5565b9150826002028217905092915050565b6200043e82620001b9565b67ffffffffffffffff8111156200045a5762000459620001c4565b5b62000466825462000222565b6200047382828562000398565b600060209050601f831160018114620004ab576000841562000496578287015190505b620004a2858262000415565b86555062000512565b601f198416620004bb8662000257565b60005b82811015620004e557848901518255600182019150602085019450602081019050620004be565b8683101562000505578489015162000501601f891682620003f5565b8355505b6001600288020188555050505b505050505050565b612df0806200052a6000396000f3fe608060405234801561001057600080fd5b506004361061012b5760003560e01c8063715018a6116100ad578063b88d4fde11610071578063b88d4fde1461032e578063c87b56dd1461034a578063d547cfb71461037a578063e985e9c514610398578063f2fde38b146103c85761012b565b8063715018a61461029c578063755edd17146102a65780638da5cb5b146102d657806395d89b41146102f4578063a22cb465146103125761012b565b806323b872dd116100f457806323b872dd146101e857806330176e131461020457806342842e0e146102205780636352211e1461023c57806370a082311461026c5761012b565b80629a9b7b1461013057806301ffc9a71461014e57806306fdde031461017e578063081812fc1461019c578063095ea7b3146101cc575b600080fd5b6101386103e4565b6040516101459190611c33565b60405180910390f35b61016860048036038101906101639190611cba565b6103f0565b6040516101759190611d02565b60405180910390f35b6101866104d2565b6040516101939190611dad565b60405180910390f35b6101b660048036038101906101b19190611dfb565b610564565b6040516101c39190611e69565b60405180910390f35b6101e660048036038101906101e19190611eb0565b6105aa565b005b61020260048036038101906101fd9190611ef0565b6106c1565b005b61021e60048036038101906102199190612078565b610721565b005b61023a60048036038101906102359190611ef0565b61073c565b005b61025660048036038101906102519190611dfb565b61075c565b6040516102639190611e69565b60405180910390f35b610286600480360381019061028191906120c1565b6107e2565b6040516102939190611c33565b60405180910390f35b6102a4610899565b005b6102c060048036038101906102bb91906120c1565b6108ad565b6040516102cd9190611c33565b60405180910390f35b6102de610928565b6040516102eb9190611e69565b60405180910390f35b6102fc610952565b6040516103099190611dad565b60405180910390f35b61032c6004803603810190610327919061211a565b6109e4565b005b610348600480360381019061034391906121fb565b6109fa565b005b610364600480360381019061035f9190611dfb565b610a5c565b6040516103719190611dad565b60405180910390f35b610382610ac4565b60405161038f9190611dad565b60405180910390f35b6103b260048036038101906103ad919061227e565b610b52565b6040516103bf9190611d02565b60405180910390f35b6103e260048036038101906103dd91906120c1565b610be6565b005b60078060000154905081565b60007f80ac58cd000000000000000000000000000000000000000000000000000000007bffffffffffffffffffffffffffffffffffffffffffffffffffffffff1916827bffffffffffffffffffffffffffffffffffffffffffffffffffffffff191614806104bb57507f5b5e139f000000000000000000000000000000000000000000000000000000007bffffffffffffffffffffffffffffffffffffffffffffffffffffffff1916827bffffffffffffffffffffffffffffffffffffffffffffffffffffffff1916145b806104cb57506104ca82610c69565b5b9050919050565b6060600080546104e1906122ed565b80601f016020809104026020016040519081016040528092919081815260200182805461050d906122ed565b801561055a5780601f1061052f5761010080835404028352916020019161055a565b820191906000526020600020905b81548152906001019060200180831161053d57829003601f168201915b5050505050905090565b600061056f82610cd3565b6004600083815260200190815260200160002060009054906101000a900473ffffffffffffffffffffffffffffffffffffffff169050919050565b60006105b58261075c565b90508073ffffffffffffffffffffffffffffffffffffffff168373ffffffffffffffffffffffffffffffffffffffff1603610625576040517f08c379a000000000000000000000000000000000000000000000000000000000815260040161061c90612390565b60405180910390fd5b8073ffffffffffffffffffffffffffffffffffffffff16610644610d1e565b73ffffffffffffffffffffffffffffffffffffffff16148061067357506106728161066d610d1e565b610b52565b5b6106b2576040517f08c379a00000000000000000000000000000000000000000000000000000000081526004016106a990612422565b60405180910390fd5b6106bc8383610d26565b505050565b6106d26106cc610d1e565b82610ddf565b610711576040517f08c379a0000000000000000000000000000000000000000000000000000000008152600401610708906124b4565b60405180910390fd5b61071c838383610e74565b505050565b61072961116d565b80600890816107389190612680565b5050565b610757838383604051806020016040528060008152506109fa565b505050565b600080610768836111eb565b9050600073ffffffffffffffffffffffffffffffffffffffff168173ffffffffffffffffffffffffffffffffffffffff16036107d9576040517f08c379a00000000000000000000000000000000000000000000000000000000081526004016107d09061279e565b60405180910390fd5b80915050919050565b60008073ffffffffffffffffffffffffffffffffffffffff168273ffffffffffffffffffffffffffffffffffffffff1603610852576040517f08c379a000000000000000000000000000000000000000000000000000000000815260040161084990612830565b60405180910390fd5b600360008373ffffffffffffffffffffffffffffffffffffffff1673ffffffffffffffffffffffffffffffffffffffff168152602001908152602001600020549050919050565b6108a161116d565b6108ab6000611228565b565b60006108b960076112ee565b60006108c56007611304565b90506108d18382611312565b3373ffffffffffffffffffffffffffffffffffffffff167fed04b67fc8dcef86f1128afaecff6471d2e3732f6113cfee4304fabed8d11246826040516109179190611c33565b60405180910390a280915050919050565b6000600660009054906101000a900473ffffffffffffffffffffffffffffffffffffffff16905090565b606060018054610961906122ed565b80601f016020809104026020016040519081016040528092919081815260200182805461098d906122ed565b80156109da5780601f106109af576101008083540402835291602001916109da565b820191906000526020600020905b8154815290600101906020018083116109bd57829003601f168201915b5050505050905090565b6109f66109ef610d1e565b8383611330565b5050565b610a0b610a05610d1e565b83610ddf565b610a4a576040517f08c379a0000000000000000000000000000000000000000000000000000000008152600401610a41906124b4565b60405180910390fd5b610a568484848461149c565b50505050565b6060610a6782610cd3565b6000610a716114f8565b90506000815111610a915760405180602001604052806000815250610abc565b80610a9b8461158a565b604051602001610aac92919061288c565b6040516020818303038152906040525b915050919050565b60088054610ad1906122ed565b80601f0160208091040260200160405190810160405280929190818152602001828054610afd906122ed565b8015610b4a5780601f10610b1f57610100808354040283529160200191610b4a565b820191906000526020600020905b815481529060010190602001808311610b2d57829003601f168201915b505050505081565b6000600560008473ffffffffffffffffffffffffffffffffffffffff1673ffffffffffffffffffffffffffffffffffffffff16815260200190815260200160002060008373ffffffffffffffffffffffffffffffffffffffff1673ffffffffffffffffffffffffffffffffffffffff16815260200190815260200160002060009054906101000a900460ff16905092915050565b610bee61116d565b600073ffffffffffffffffffffffffffffffffffffffff168173ffffffffffffffffffffffffffffffffffffffff1603610c5d576040517f08c379a0000000000000000000000000000000000000000000000000000000008152600401610c5490612922565b60405180910390fd5b610c6681611228565b50565b60007f01ffc9a7000000000000000000000000000000000000000000000000000000007bffffffffffffffffffffffffffffffffffffffffffffffffffffffff1916827bffffffffffffffffffffffffffffffffffffffffffffffffffffffff1916149050919050565b610cdc81611658565b610d1b576040517f08c379a0000000000000000000000000000000000000000000000000000000008152600401610d129061279e565b60405180910390fd5b50565b600033905090565b816004600083815260200190815260200160002060006101000a81548173ffffffffffffffffffffffffffffffffffffffff021916908373ffffffffffffffffffffffffffffffffffffffff160217905550808273ffffffffffffffffffffffffffffffffffffffff16610d998361075c565b73ffffffffffffffffffffffffffffffffffffffff167f8c5be1e5ebec7d5bd14f71427d1e84f3dd0314c0f7b2291e5b200ac8c7c3b92560405160405180910390a45050565b600080610deb8361075c565b90508073ffffffffffffffffffffffffffffffffffffffff168473ffffffffffffffffffffffffffffffffffffffff161480610e2d5750610e2c8185610b52565b5b80610e6b57508373ffffffffffffffffffffffffffffffffffffffff16610e5384610564565b73ffffffffffffffffffffffffffffffffffffffff16145b91505092915050565b8273ffffffffffffffffffffffffffffffffffffffff16610e948261075c565b73ffffffffffffffffffffffffffffffffffffffff1614610eea576040517f08c379a0000000000000000000000000000000000000000000000000000000008152600401610ee1906129b4565b60405180910390fd5b600073ffffffffffffffffffffffffffffffffffffffff168273ffffffffffffffffffffffffffffffffffffffff1603610f59576040517f08c379a0000000000000000000000000000000000000000000000000000000008152600401610f5090612a46565b60405180910390fd5b610f668383836001611699565b8273ffffffffffffffffffffffffffffffffffffffff16610f868261075c565b73ffffffffffffffffffffffffffffffffffffffff1614610fdc576040517f08c379a0000000000000000000000000000000000000000000000000000000008152600401610fd3906129b4565b60405180910390fd5b6004600082815260200190815260200160002060006101000a81549073ffffffffffffffffffffffffffffffffffffffff02191690556001600360008573ffffffffffffffffffffffffffffffffffffffff1673ffffffffffffffffffffffffffffffffffffffff168152602001908152602001600020600082825403925050819055506001600360008473ffffffffffffffffffffffffffffffffffffffff1673ffffffffffffffffffffffffffffffffffffffff16815260200190815260200160002060008282540192505081905550816002600083815260200190815260200160002060006101000a81548173ffffffffffffffffffffffffffffffffffffffff021916908373ffffffffffffffffffffffffffffffffffffffff160217905550808273ffffffffffffffffffffffffffffffffffffffff168473ffffffffffffffffffffffffffffffffffffffff167fddf252ad1be2c89b69c2b068fc378daa952ba7f163c4a11628f55a4df523b3ef60405160405180910390a4611168838383600161169f565b505050565b611175610d1e565b73ffffffffffffffffffffffffffffffffffffffff16611193610928565b73ffffffffffffffffffffffffffffffffffffffff16146111e9576040517f08c379a00000000000000000000000000000000000000000000000000000000081526004016111e090612ab2565b60405180910390fd5b565b60006002600083815260200190815260200160002060009054906101000a900473ffffffffffffffffffffffffffffffffffffffff169050919050565b6000600660009054906101000a900473ffffffffffffffffffffffffffffffffffffffff16905081600660006101000a81548173ffffffffffffffffffffffffffffffffffffffff021916908373ffffffffffffffffffffffffffffffffffffffff1602179055508173ffffffffffffffffffffffffffffffffffffffff168173ffffffffffffffffffffffffffffffffffffffff167f8be0079c531659141344cd1fd0a4f28419497f9722a3daafe3b4186f6b6457e060405160405180910390a35050565b6001816000016000828254019250508190555050565b600081600001549050919050565b61132c8282604051806020016040528060008152506116a5565b5050565b8173ffffffffffffffffffffffffffffffffffffffff168373ffffffffffffffffffffffffffffffffffffffff160361139e576040517f08c379a000000000000000000000000000000000000000000000000000000000815260040161139590612b1e565b60405180910390fd5b80600560008573ffffffffffffffffffffffffffffffffffffffff1673ffffffffffffffffffffffffffffffffffffffff16815260200190815260200160002060008473ffffffffffffffffffffffffffffffffffffffff1673ffffffffffffffffffffffffffffffffffffffff16815260200190815260200160002060006101000a81548160ff0219169083151502179055508173ffffffffffffffffffffffffffffffffffffffff168373ffffffffffffffffffffffffffffffffffffffff167f17307eab39ab6107e8899845ad3d59bd9653f200f220920489ca2b5937696c318360405161148f9190611d02565b60405180910390a3505050565b6114a7848484610e74565b6114b384848484611700565b6114f2576040517f08c379a00000000000000000000000000000000000000000000000000000000081526004016114e990612bb0565b60405180910390fd5b50505050565b606060088054611507906122ed565b80601f0160208091040260200160405190810160405280929190818152602001828054611533906122ed565b80156115805780601f1061155557610100808354040283529160200191611580565b820191906000526020600020905b81548152906001019060200180831161156357829003601f168201915b5050505050905090565b60606000600161159984611887565b01905060008167ffffffffffffffff8111156115b8576115b7611f4d565b5b6040519080825280601f01601f1916602001820160405280156115ea5781602001600182028036833780820191505090505b509050600082602001820190505b60011561164d578080600190039150507f3031323334353637383961626364656600000000000000000000000000000000600a86061a8153600a858161164157611640612bd0565b5b049450600085036115f8575b819350505050919050565b60008073ffffffffffffffffffffffffffffffffffffffff1661167a836111eb565b73ffffffffffffffffffffffffffffffffffffffff1614159050919050565b50505050565b50505050565b6116af83836119da565b6116bc6000848484611700565b6116fb576040517f08c379a00000000000000000000000000000000000000000000000000000000081526004016116f290612bb0565b60405180910390fd5b505050565b60006117218473ffffffffffffffffffffffffffffffffffffffff16611bf7565b1561187a578373ffffffffffffffffffffffffffffffffffffffff1663150b7a0261174a610d1e565b8786866040518563ffffffff1660e01b815260040161176c9493929190612c54565b6020604051808303816000875af19250505080156117a857506040513d601f19601f820116820180604052508101906117a59190612cb5565b60015b61182a573d80600081146117d8576040519150601f19603f3d011682016040523d82523d6000602084013e6117dd565b606091505b506000815103611822576040517f08c379a000000000000000000000000000000000000000000000000000000000815260040161181990612bb0565b60405180910390fd5b805181602001fd5b63150b7a0260e01b7bffffffffffffffffffffffffffffffffffffffffffffffffffffffff1916817bffffffffffffffffffffffffffffffffffffffffffffffffffffffff19161491505061187f565b600190505b949350505050565b600080600090507a184f03e93ff9f4daa797ed6e38ed64bf6a1f01000000000000000083106118e5577a184f03e93ff9f4daa797ed6e38ed64bf6a1f01000000000000000083816118db576118da612bd0565b5b0492506040810190505b6d04ee2d6d415b85acef81000000008310611922576d04ee2d6d415b85acef8100000000838161191857611917612bd0565b5b0492506020810190505b662386f26fc10000831061195157662386f26fc10000838161194757611946612bd0565b5b0492506010810190505b6305f5e100831061197a576305f5e10083816119705761196f612bd0565b5b0492506008810190505b612710831061199f57612710838161199557611994612bd0565b5b0492506004810190505b606483106119c257606483816119b8576119b7612bd0565b5b0492506002810190505b600a83106119d1576001810190505b80915050919050565b600073ffffffffffffffffffffffffffffffffffffffff168273ffffffffffffffffffffffffffffffffffffffff1603611a49576040517f08c379a0000000000000000000000000000000000000000000000000000000008152600401611a4090612d2e565b60405180910390fd5b611a5281611658565b15611a92576040517f08c379a0000000000000000000000000000000000000000000000000000000008152600401611a8990612d9a565b60405180910390fd5b611aa0600083836001611699565b611aa981611658565b15611ae9576040517f08c379a0000000000000000000000000000000000000000000000000000000008152600401611ae090612d9a565b60405180910390fd5b6001600360008473ffffffffffffffffffffffffffffffffffffffff1673ffffffffffffffffffffffffffffffffffffffff16815260200190815260200160002060008282540192505081905550816002600083815260200190815260200160002060006101000a81548173ffffffffffffffffffffffffffffffffffffffff021916908373ffffffffffffffffffffffffffffffffffffffff160217905550808273ffffffffffffffffffffffffffffffffffffffff16600073ffffffffffffffffffffffffffffffffffffffff167fddf252ad1be2c89b69c2b068fc378daa952ba7f163c4a11628f55a4df523b3ef60405160405180910390a4611bf360008383600161169f565b5050565b6000808273ffffffffffffffffffffffffffffffffffffffff163b119050919050565b6000819050919050565b611c2d81611c1a565b82525050565b6000602082019050611c486000830184611c24565b92915050565b6000604051905090565b600080fd5b600080fd5b60007fffffffff0000000000000000000000000000000000000000000000000000000082169050919050565b611c9781611c62565b8114611ca257600080fd5b50565b600081359050611cb481611c8e565b92915050565b600060208284031215611cd057611ccf611c58565b5b6000611cde84828501611ca5565b91505092915050565b60008115159050919050565b611cfc81611ce7565b82525050565b6000602082019050611d176000830184611cf3565b92915050565b600081519050919050565b600082825260208201905092915050565b60005b83811015611d57578082015181840152602081019050611d3c565b60008484015250505050565b6000601f19601f8301169050919050565b6000611d7f82611d1d565b611d898185611d28565b9350611d99818560208601611d39565b611da281611d63565b840191505092915050565b60006020820190508181036000830152611dc78184611d74565b905092915050565b611dd881611c1a565b8114611de357600080fd5b50565b600081359050611df581611dcf565b92915050565b600060208284031215611e1157611e10611c58565b5b6000611e1f84828501611de6565b91505092915050565b600073ffffffffffffffffffffffffffffffffffffffff82169050919050565b6000611e5382611e28565b9050919050565b611e6381611e48565b82525050565b6000602082019050611e7e6000830184611e5a565b92915050565b611e8d81611e48565b8114611e9857600080fd5b50565b600081359050611eaa81611e84565b92915050565b60008060408385031215611ec757611ec6611c58565b5b6000611ed585828601611e9b565b9250506020611ee685828601611de6565b9150509250929050565b600080600060608486031215611f0957611f08611c58565b5b6000611f1786828701611e9b565b9350506020611f2886828701611e9b565b9250506040611f3986828701611de6565b9150509250925092565b600080fd5b600080fd5b7f4e487b7100000000000000000000000000000000000000000000000000000000600052604160045260246000fd5b611f8582611d63565b810181811067ffffffffffffffff82111715611fa457611fa3611f4d565b5b80604052505050565b6000611fb7611c4e565b9050611fc38282611f7c565b919050565b600067ffffffffffffffff821115611fe357611fe2611f4d565b5b611fec82611d63565b9050602081019050919050565b82818337600083830152505050565b600061201b61201684611fc8565b611fad565b90508281526020810184848401111561203757612036611f48565b5b612042848285611ff9565b509392505050565b600082601f83011261205f5761205e611f43565b5b813561206f848260208601612008565b91505092915050565b60006020828403121561208e5761208d611c58565b5b600082013567ffffffffffffffff8111156120ac576120ab611c5d565b5b6120b88482850161204a565b91505092915050565b6000602082840312156120d7576120d6611c58565b5b60006120e584828501611e9b565b91505092915050565b6120f781611ce7565b811461210257600080fd5b50565b600081359050612114816120ee565b92915050565b6000806040838503121561213157612130611c58565b5b600061213f85828601611e9b565b925050602061215085828601612105565b9150509250929050565b600067ffffffffffffffff82111561217557612174611f4d565b5b61217e82611d63565b9050602081019050919050565b600061219e6121998461215a565b611fad565b9050828152602081018484840111156121ba576121b9611f48565b5b6121c5848285611ff9565b509392505050565b600082601f8301126121e2576121e1611f43565b5b81356121f284826020860161218b565b91505092915050565b6000806000806080858703121561221557612214611c58565b5b600061222387828801611e9b565b945050602061223487828801611e9b565b935050604061224587828801611de6565b925050606085013567ffffffffffffffff81111561226657612265611c5d565b5b612272878288016121cd565b91505092959194509250565b6000806040838503121561229557612294611c58565b5b60006122a385828601611e9b565b92505060206122b485828601611e9b565b9150509250929050565b7f4e487b7100000000000000000000000000000000000000000000000000000000600052602260045260246000fd5b6000600282049050600182168061230557607f821691505b602082108103612318576123176122be565b5b50919050565b7f4552433732313a20617070726f76616c20746f2063757272656e74206f776e6560008201527f7200000000000000000000000000000000000000000000000000000000000000602082015250565b600061237a602183611d28565b91506123858261231e565b604082019050919050565b600060208201905081810360008301526123a98161236d565b9050919050565b7f4552433732313a20617070726f76652063616c6c6572206973206e6f7420746f60008201527f6b656e206f776e6572206f7220617070726f76656420666f7220616c6c000000602082015250565b600061240c603d83611d28565b9150612417826123b0565b604082019050919050565b6000602082019050818103600083015261243b816123ff565b9050919050565b7f4552433732313a2063616c6c6572206973206e6f7420746f6b656e206f776e6560008201527f72206f7220617070726f76656400000000000000000000000000000000000000602082015250565b600061249e602d83611d28565b91506124a982612442565b604082019050919050565b600060208201905081810360008301526124cd81612491565b9050919050565b60008190508160005260206000209050919050565b60006020601f8301049050919050565b600082821b905092915050565b6000600883026125367fffffffffffffffffffffffffffffffffffffffffffffffffffffffffffffffff826124f9565b61254086836124f9565b95508019841693508086168417925050509392505050565b6000819050919050565b600061257d61257861257384611c1a565b612558565b611c1a565b9050919050565b6000819050919050565b61259783612562565b6125ab6125a382612584565b848454612506565b825550505050565b600090565b6125c06125b3565b6125cb81848461258e565b505050565b5b818110156125ef576125e46000826125b8565b6001810190506125d1565b5050565b601f82111561263457612605816124d4565b61260e846124e9565b8101602085101561261d578190505b612631612629856124e9565b8301826125d0565b50505b505050565b600082821c905092915050565b600061265760001984600802612639565b1980831691505092915050565b60006126708383612646565b9150826002028217905092915050565b61268982611d1d565b67ffffffffffffffff8111156126a2576126a1611f4d565b5b6126ac82546122ed565b6126b78282856125f3565b600060209050601f8311600181146126ea57600084156126d8578287015190505b6126e28582612664565b86555061274a565b601f1984166126f8866124d4565b60005b82811015612720578489015182556001820191506020850194506020810190506126fb565b8683101561273d5784890151612739601f891682612646565b8355505b6001600288020188555050505b505050505050565b7f4552433732313a20696e76616c696420746f6b656e2049440000000000000000600082015250565b6000612788601883611d28565b915061279382612752565b602082019050919050565b600060208201905081810360008301526127b78161277b565b9050919050565b7f4552433732313a2061646472657373207a65726f206973206e6f74206120766160008201527f6c6964206f776e65720000000000000000000000000000000000000000000000602082015250565b600061281a602983611d28565b9150612825826127be565b604082019050919050565b600060208201905081810360008301526128498161280d565b9050919050565b600081905092915050565b600061286682611d1d565b6128708185612850565b9350612880818560208601611d39565b80840191505092915050565b6000612898828561285b565b91506128a4828461285b565b91508190509392505050565b7f4f776e61626c653a206e6577206f776e657220697320746865207a65726f206160008201527f6464726573730000000000000000000000000000000000000000000000000000602082015250565b600061290c602683611d28565b9150612917826128b0565b604082019050919050565b6000602082019050818103600083015261293b816128ff565b9050919050565b7f4552433732313a207472616e736665722066726f6d20696e636f72726563742060008201527f6f776e6572000000000000000000000000000000000000000000000000000000602082015250565b600061299e602583611d28565b91506129a982612942565b604082019050919050565b600060208201905081810360008301526129cd81612991565b9050919050565b7f4552433732313a207472616e7366657220746f20746865207a65726f2061646460008201527f7265737300000000000000000000000000000000000000000000000000000000602082015250565b6000612a30602483611d28565b9150612a3b826129d4565b604082019050919050565b60006020820190508181036000830152612a5f81612a23565b9050919050565b7f4f776e61626c653a2063616c6c6572206973206e6f7420746865206f776e6572600082015250565b6000612a9c602083611d28565b9150612aa782612a66565b602082019050919050565b60006020820190508181036000830152612acb81612a8f565b9050919050565b7f4552433732313a20617070726f766520746f2063616c6c657200000000000000600082015250565b6000612b08601983611d28565b9150612b1382612ad2565b602082019050919050565b60006020820190508181036000830152612b3781612afb565b9050919050565b7f4552433732313a207472616e7366657220746f206e6f6e20455243373231526560008201527f63656976657220696d706c656d656e7465720000000000000000000000000000602082015250565b6000612b9a603283611d28565b9150612ba582612b3e565b604082019050919050565b60006020820190508181036000830152612bc981612b8d565b9050919050565b7f4e487b7100000000000000000000000000000000000000000000000000000000600052601260045260246000fd5b600081519050919050565b600082825260208201905092915050565b6000612c2682612bff565b612c308185612c0a565b9350612c40818560208601611d39565b612c4981611d63565b840191505092915050565b6000608082019050612c696000830187611e5a565b612c766020830186611e5a565b612c836040830185611c24565b8181036060830152612c958184612c1b565b905095945050505050565b600081519050612caf81611c8e565b92915050565b600060208284031215612ccb57612cca611c58565b5b6000612cd984828501612ca0565b91505092915050565b7f4552433732313a206d696e7420746f20746865207a65726f2061646472657373600082015250565b6000612d18602083611d28565b9150612d2382612ce2565b602082019050919050565b60006020820190508181036000830152612d4781612d0b565b9050919050565b7f4552433732313a20746f6b656e20616c7265616479206d696e74656400000000600082015250565b6000612d84601c83611d28565b9150612d8f82612d4e565b602082019050919050565b60006020820190508181036000830152612db381612d77565b905091905056fea2646970667358221220b1d5ccac11d1306895adacff3d8bc82d7225117ba32e3e74bfa8b41b77ff9f3664736f6c63430008120033",
  "linkReferences": {},
  "deployedLinkReferences": {}
}