{
  "_format": "hh-sol-artifact-1",
  "contractName": "NFT",
  "sourceName": "contracts/NFT.sol",
  "abi": [
    {
      "inputs": [],
      "stateMutability": "nonpayable",
      "type": "constructor"
    },
    {
      "anonymous": false,
      "inputs": [
        {
          "indexed": true,
          "internalType": "address",
          "name": "owner",
          "type": "address"
        },
        {
          "indexed": true,
          "internalType": "address",
          "name": "approved",
          "type": "address"
        },
        {
          "indexed": true,
          "internalType": "uint256",
          "name": "tokenId",
          "type": "uint256"
        }
      ],
      "name": "Approval",
      "type": "event"
    },
    {
      "anonymous": false,
      "inputs": [
        {
          "indexed": true,
          "internalType": "address",
          "name": "owner",
          "type": "address"
        },
        {
          "indexed": true,
          "internalType": "address",
          "name": "operator",
          "type": "address"
        },
        {
          "indexed": false,
          "internalType": "bool",
          "name": "approved",
          "type": "bool"
        }
      ],
      "name": "ApprovalForAll",
      "type": "event"
    },
    {
      "anonymous": false,
      "inputs": [
        {
          "indexed": true,
          "internalType": "address",
          "name": "previousOwner",
          "type": "address"
        },
        {
          "indexed": true,
          "internalType": "address",
          "name": "newOwner",
          "type": "address"
        }
      ],
      "name": "OwnershipTransferred",
      "type": "event"
    },
    {
      "anonymous": false,
      "inputs": [
        {
          "indexed": true,
          "internalType": "address",
          "name": "from",
          "type": "address"
        },
        {
          "indexed": true,
          "internalType": "address",
          "name": "to",
          "type": "address"
        },
        {
          "indexed": true,
          "internalType": "uint256",
          "name": "tokenId",
          "type": "uint256"
        }
      ],
      "name": "Transfer",
      "type": "event"
    },
    {
      "inputs": [
        {
          "internalType": "address",
          "name": "to",
          "type": "address"
        },
        {
          "internalType": "uint256",
          "name": "tokenId",
          "type": "uint256"
        }
      ],
      "name": "approve",
      "outputs": [],
      "stateMutability": "nonpayable",
      "type": "function"
    },
    {
      "inputs": [
        {
          "internalType": "address",
          "name": "owner",
          "type": "address"
        }
      ],
      "name": "balanceOf",
      "outputs": [
        {
          "internalType": "uint256",
          "name": "",
          "type": "uint256"
        }
      ],
      "stateMutability": "view",
      "type": "function"
    },
    {
      "inputs": [],
      "name": "baseTokenURI",
      "outputs": [
        {
          "internalType": "string",
          "name": "",
          "type": "string"
        }
      ],
      "stateMutability": "view",
      "type": "function"
    },
    {
      "inputs": [],
      "name": "currentTokenId",
      "outputs": [
        {
          "internalType": "uint256",
          "name": "_value",
          "type": "uint256"
        }
      ],
      "stateMutability": "view",
      "type": "function"
    },
    {
      "inputs": [
        {
          "internalType": "uint256",
          "name": "tokenId",
          "type": "uint256"
        }
      ],
      "name": "getApproved",
      "outputs": [
        {
          "internalType": "address",
          "name": "",
          "type": "address"
        }
      ],
      "stateMutability": "view",
      "type": "function"
    },
    {
      "inputs": [
        {
          "internalType": "address",
          "name": "owner",
          "type": "address"
        },
        {
          "internalType": "address",
          "name": "operator",
          "type": "address"
        }
      ],
      "name": "isApprovedForAll",
      "outputs": [
        {
          "internalType": "bool",
          "name": "",
          "type": "bool"
        }
      ],
      "stateMutability": "view",
      "type": "function"
    },
    {
      "inputs": [
        {
          "internalType": "address",
          "name": "recipient",
          "type": "address"
        }
      ],
      "name": "mintTo",
      "outputs": [
        {
          "internalType": "uint256",
          "name": "",
          "type": "uint256"
        }
      ],
      "stateMutability": "nonpayable",
      "type": "function"
    },
    {
      "inputs": [],
      "name": "name",
      "outputs": [
        {
          "internalType": "string",
          "name": "",
          "type": "string"
        }
      ],
      "stateMutability": "view",
      "type": "function"
    },
    {
      "inputs": [],
      "name": "owner",
      "outputs": [
        {
          "internalType": "address",
          "name": "",
          "type": "address"
        }
      ],
      "stateMutability": "view",
      "type": "function"
    },
    {
      "inputs": [
        {
          "internalType": "uint256",
          "name": "tokenId",
          "type": "uint256"
        }
      ],
      "name": "ownerOf",
      "outputs": [
        {
          "internalType": "address",
          "name": "",
          "type": "address"
        }
      ],
      "stateMutability": "view",
      "type": "function"
    },
    {
      "inputs": [],
      "name": "renounceOwnership",
      "outputs": [],
      "stateMutability": "nonpayable",
      "type": "function"
    },
    {
      "inputs": [
        {
          "internalType": "address",
          "name": "from",
          "type": "address"
        },
        {
          "internalType": "address",
          "name": "to",
          "type": "address"
        },
        {
          "internalType": "uint256",
          "name": "tokenId",
          "type": "uint256"
        }
      ],
      "name": "safeTransferFrom",
      "outputs": [],
      "stateMutability": "nonpayable",
      "type": "function"
    },
    {
      "inputs": [
        {
          "internalType": "address",
          "name": "from",
          "type": "address"
        },
        {
          "internalType": "address",
          "name": "to",
          "type": "address"
        },
        {
          "internalType": "uint256",
          "name": "tokenId",
          "type": "uint256"
        },
        {
          "internalType": "bytes",
          "name": "data",
          "type": "bytes"
        }
      ],
      "name": "safeTransferFrom",
      "outputs": [],
      "stateMutability": "nonpayable",
      "type": "function"
    },
    {
      "inputs": [
        {
          "internalType": "address",
          "name": "operator",
          "type": "address"
        },
        {
          "internalType": "bool",
          "name": "approved",
          "type": "bool"
        }
      ],
      "name": "setApprovalForAll",
      "outputs": [],
      "stateMutability": "nonpayable",
      "type": "function"
    },
    {
      "inputs": [
        {
          "internalType": "string",
          "name": "_baseTokenURI",
          "type": "string"
        }
      ],
      "name": "setBaseTokenURI",
      "outputs": [],
      "stateMutability": "nonpayable",
      "type": "function"
    },
    {
      "inputs": [
        {
          "internalType": "bytes4",
          "name": "interfaceId",
          "type": "bytes4"
        }
      ],
      "name": "supportsInterface",
      "outputs": [
        {
          "internalType": "bool",
          "name": "",
          "type": "bool"
        }
      ],
      "stateMutability": "view",
      "type": "function"
    },
    {
      "inputs": [],
      "name": "symbol",
      "outputs": [
        {
          "internalType": "string",
          "name": "",
          "type": "string"
        }
      ],
      "stateMutability": "view",
      "type": "function"
    },
    {
      "inputs": [
        {
          "internalType": "uint256",
          "name": "tokenId",
          "type": "uint256"
        }
      ],
      "name": "tokenURI",
      "outputs": [
        {
          "internalType": "string",
          "name": "",
          "type": "string"
        }
      ],
      "stateMutability": "view",
      "type": "function"
    },
    {
      "inputs": [
        {
          "internalType": "address",
          "name": "from",
          "type": "address"
        },
        {
          "internalType": "address",
          "name": "to",
          "type": "address"
        },
        {
          "internalType": "uint256",
          "name": "tokenId",
          "type": "uint256"
        }
      ],
      "name": "transferFrom",
      "outputs": [],
      "stateMutability": "nonpayable",
      "type": "function"
    },
    {
      "inputs": [
        {
          "internalType": "address",
          "name": "newOwner",
          "type": "address"
        }
      ],
      "name": "transferOwnership",
      "outputs": [],
      "stateMutability": "nonpayable",
      "type": "function"
    }
  ],
  "bytecode": "0x60806040523480156200001157600080fd5b506040518060400160405280600781526020017f4e465454657374000000000000000000000000000000000000000000000000008152506040518060400160405280600381526020017f4e4654000000000000000000000000000000000000000000000000000000000081525081600090816200008f919062000433565b508060019081620000a1919062000433565b505050620000c4620000b8620000eb60201b60201c565b620000f360201b60201c565b6040518060200160405280600081525060089081620000e4919062000433565b506200051a565b600033905090565b6000600660009054906101000a900473ffffffffffffffffffffffffffffffffffffffff16905081600660006101000a81548173ffffffffffffffffffffffffffffffffffffffff021916908373ffffffffffffffffffffffffffffffffffffffff1602179055508173ffffffffffffffffffffffffffffffffffffffff168173ffffffffffffffffffffffffffffffffffffffff167f8be0079c531659141344cd1fd0a4f28419497f9722a3daafe3b4186f6b6457e060405160405180910390a35050565b600081519050919050565b7f4e487b7100000000000000000000000000000000000000000000000000000000600052604160045260246000fd5b7f4e487b7100000000000000000000000000000000000000000000000000000000600052602260045260246000fd5b600060028204905060018216806200023b57607f821691505b602082108103620002515762000250620001f3565b5b50919050565b60008190508160005260206000209050919050565b60006020601f8301049050919050565b600082821b905092915050565b600060088302620002bb7fffffffffffffffffffffffffffffffffffffffffffffffffffffffffffffffff826200027c565b620002c786836200027c565b95508019841693508086168417925050509392505050565b6000819050919050565b6000819050919050565b6000620003146200030e6200030884620002df565b620002e9565b620002df565b9050919050565b6000819050919050565b6200033083620002f3565b620003486200033f826200031b565b84845462000289565b825550505050565b600090565b6200035f62000350565b6200036c81848462000325565b505050565b5b8181101562000394576200038860008262000355565b60018101905062000372565b5050565b601f821115620003e357620003ad8162000257565b620003b8846200026c565b81016020851015620003c8578190505b620003e0620003d7856200026c565b83018262000371565b50505b505050565b600082821c905092915050565b60006200040860001984600802620003e8565b1980831691505092915050565b6000620004238383620003f5565b9150826002028217905092915050565b6200043e82620001b9565b67ffffffffffffffff8111156200045a5762000459620001c4565b5b62000466825462000222565b6200047382828562000398565b600060209050601f831160018114620004ab576000841562000496578287015190505b620004a2858262000415565b86555062000512565b601f198416620004bb8662000257565b60005b82811015620004e557848901518255600182019150602085019450602081019050620004be565b8683101562000505578489015162000501601f891682620003f5565b8355505b6001600288020188555050505b505050505050565b612da2806200052a6000396000f3fe608060405234801561001057600080fd5b506004361061012b5760003560e01c8063715018a6116100ad578063b88d4fde11610071578063b88d4fde1461032e578063c87b56dd1461034a578063d547cfb71461037a578063e985e9c514610398578063f2fde38b146103c85761012b565b8063715018a61461029c578063755edd17146102a65780638da5cb5b146102d657806395d89b41146102f4578063a22cb465146103125761012b565b806323b872dd116100f457806323b872dd146101e857806330176e131461020457806342842e0e146102205780636352211e1461023c57806370a082311461026c5761012b565b80629a9b7b1461013057806301ffc9a71461014e57806306fdde031461017e578063081812fc1461019c578063095ea7b3146101cc575b600080fd5b6101386103e4565b6040516101459190611be5565b60405180910390f35b61016860048036038101906101639190611c6c565b6103f0565b6040516101759190611cb4565b60405180910390f35b6101866104d2565b6040516101939190611d5f565b60405180910390f35b6101b660048036038101906101b19190611dad565b610564565b6040516101c39190611e1b565b60405180910390f35b6101e660048036038101906101e19190611e62565b6105aa565b005b61020260048036038101906101fd9190611ea2565b6106c1565b005b61021e6004803603810190610219919061202a565b610721565b005b61023a60048036038101906102359190611ea2565b61073c565b005b61025660048036038101906102519190611dad565b61075c565b6040516102639190611e1b565b60405180910390f35b61028660048036038101906102819190612073565b6107e2565b6040516102939190611be5565b60405180910390f35b6102a4610899565b005b6102c060048036038101906102bb9190612073565b6108ad565b6040516102cd9190611be5565b60405180910390f35b6102de6108da565b6040516102eb9190611e1b565b60405180910390f35b6102fc610904565b6040516103099190611d5f565b60405180910390f35b61032c600480360381019061032791906120cc565b610996565b005b610348600480360381019061034391906121ad565b6109ac565b005b610364600480360381019061035f9190611dad565b610a0e565b6040516103719190611d5f565b60405180910390f35b610382610a76565b60405161038f9190611d5f565b60405180910390f35b6103b260048036038101906103ad9190612230565b610b04565b6040516103bf9190611cb4565b60405180910390f35b6103e260048036038101906103dd9190612073565b610b98565b005b60078060000154905081565b60007f80ac58cd000000000000000000000000000000000000000000000000000000007bffffffffffffffffffffffffffffffffffffffffffffffffffffffff1916827bffffffffffffffffffffffffffffffffffffffffffffffffffffffff191614806104bb57507f5b5e139f000000000000000000000000000000000000000000000000000000007bffffffffffffffffffffffffffffffffffffffffffffffffffffffff1916827bffffffffffffffffffffffffffffffffffffffffffffffffffffffff1916145b806104cb57506104ca82610c1b565b5b9050919050565b6060600080546104e19061229f565b80601f016020809104026020016040519081016040528092919081815260200182805461050d9061229f565b801561055a5780601f1061052f5761010080835404028352916020019161055a565b820191906000526020600020905b81548152906001019060200180831161053d57829003601f168201915b5050505050905090565b600061056f82610c85565b6004600083815260200190815260200160002060009054906101000a900473ffffffffffffffffffffffffffffffffffffffff169050919050565b60006105b58261075c565b90508073ffffffffffffffffffffffffffffffffffffffff168373ffffffffffffffffffffffffffffffffffffffff1603610625576040517f08c379a000000000000000000000000000000000000000000000000000000000815260040161061c90612342565b60405180910390fd5b8073ffffffffffffffffffffffffffffffffffffffff16610644610cd0565b73ffffffffffffffffffffffffffffffffffffffff16148061067357506106728161066d610cd0565b610b04565b5b6106b2576040517f08c379a00000000000000000000000000000000000000000000000000000000081526004016106a9906123d4565b60405180910390fd5b6106bc8383610cd8565b505050565b6106d26106cc610cd0565b82610d91565b610711576040517f08c379a000000000000000000000000000000000000000000000000000000000815260040161070890612466565b60405180910390fd5b61071c838383610e26565b505050565b61072961111f565b80600890816107389190612632565b5050565b610757838383604051806020016040528060008152506109ac565b505050565b6000806107688361119d565b9050600073ffffffffffffffffffffffffffffffffffffffff168173ffffffffffffffffffffffffffffffffffffffff16036107d9576040517f08c379a00000000000000000000000000000000000000000000000000000000081526004016107d090612750565b60405180910390fd5b80915050919050565b60008073ffffffffffffffffffffffffffffffffffffffff168273ffffffffffffffffffffffffffffffffffffffff1603610852576040517f08c379a0000000000000000000000000000000000000000000000000000000008152600401610849906127e2565b60405180910390fd5b600360008373ffffffffffffffffffffffffffffffffffffffff1673ffffffffffffffffffffffffffffffffffffffff168152602001908152602001600020549050919050565b6108a161111f565b6108ab60006111da565b565b60006108b960076112a0565b60006108c560076112b6565b90506108d183826112c4565b80915050919050565b6000600660009054906101000a900473ffffffffffffffffffffffffffffffffffffffff16905090565b6060600180546109139061229f565b80601f016020809104026020016040519081016040528092919081815260200182805461093f9061229f565b801561098c5780601f106109615761010080835404028352916020019161098c565b820191906000526020600020905b81548152906001019060200180831161096f57829003601f168201915b5050505050905090565b6109a86109a1610cd0565b83836112e2565b5050565b6109bd6109b7610cd0565b83610d91565b6109fc576040517f08c379a00000000000000000000000000000000000000000000000000000000081526004016109f390612466565b60405180910390fd5b610a088484848461144e565b50505050565b6060610a1982610c85565b6000610a236114aa565b90506000815111610a435760405180602001604052806000815250610a6e565b80610a4d8461153c565b604051602001610a5e92919061283e565b6040516020818303038152906040525b915050919050565b60088054610a839061229f565b80601f0160208091040260200160405190810160405280929190818152602001828054610aaf9061229f565b8015610afc5780601f10610ad157610100808354040283529160200191610afc565b820191906000526020600020905b815481529060010190602001808311610adf57829003601f168201915b505050505081565b6000600560008473ffffffffffffffffffffffffffffffffffffffff1673ffffffffffffffffffffffffffffffffffffffff16815260200190815260200160002060008373ffffffffffffffffffffffffffffffffffffffff1673ffffffffffffffffffffffffffffffffffffffff16815260200190815260200160002060009054906101000a900460ff16905092915050565b610ba061111f565b600073ffffffffffffffffffffffffffffffffffffffff168173ffffffffffffffffffffffffffffffffffffffff1603610c0f576040517f08c379a0000000000000000000000000000000000000000000000000000000008152600401610c06906128d4565b60405180910390fd5b610c18816111da565b50565b60007f01ffc9a7000000000000000000000000000000000000000000000000000000007bffffffffffffffffffffffffffffffffffffffffffffffffffffffff1916827bffffffffffffffffffffffffffffffffffffffffffffffffffffffff1916149050919050565b610c8e8161160a565b610ccd576040517f08c379a0000000000000000000000000000000000000000000000000000000008152600401610cc490612750565b60405180910390fd5b50565b600033905090565b816004600083815260200190815260200160002060006101000a81548173ffffffffffffffffffffffffffffffffffffffff021916908373ffffffffffffffffffffffffffffffffffffffff160217905550808273ffffffffffffffffffffffffffffffffffffffff16610d4b8361075c565b73ffffffffffffffffffffffffffffffffffffffff167f8c5be1e5ebec7d5bd14f71427d1e84f3dd0314c0f7b2291e5b200ac8c7c3b92560405160405180910390a45050565b600080610d9d8361075c565b90508073ffffffffffffffffffffffffffffffffffffffff168473ffffffffffffffffffffffffffffffffffffffff161480610ddf5750610dde8185610b04565b5b80610e1d57508373ffffffffffffffffffffffffffffffffffffffff16610e0584610564565b73ffffffffffffffffffffffffffffffffffffffff16145b91505092915050565b8273ffffffffffffffffffffffffffffffffffffffff16610e468261075c565b73ffffffffffffffffffffffffffffffffffffffff1614610e9c576040517f08c379a0000000000000000000000000000000000000000000000000000000008152600401610e9390612966565b60405180910390fd5b600073ffffffffffffffffffffffffffffffffffffffff168273ffffffffffffffffffffffffffffffffffffffff1603610f0b576040517f08c379a0000000000000000000000000000000000000000000000000000000008152600401610f02906129f8565b60405180910390fd5b610f18838383600161164b565b8273ffffffffffffffffffffffffffffffffffffffff16610f388261075c565b73ffffffffffffffffffffffffffffffffffffffff1614610f8e576040517f08c379a0000000000000000000000000000000000000000000000000000000008152600401610f8590612966565b60405180910390fd5b6004600082815260200190815260200160002060006101000a81549073ffffffffffffffffffffffffffffffffffffffff02191690556001600360008573ffffffffffffffffffffffffffffffffffffffff1673ffffffffffffffffffffffffffffffffffffffff168152602001908152602001600020600082825403925050819055506001600360008473ffffffffffffffffffffffffffffffffffffffff1673ffffffffffffffffffffffffffffffffffffffff16815260200190815260200160002060008282540192505081905550816002600083815260200190815260200160002060006101000a81548173ffffffffffffffffffffffffffffffffffffffff021916908373ffffffffffffffffffffffffffffffffffffffff160217905550808273ffffffffffffffffffffffffffffffffffffffff168473ffffffffffffffffffffffffffffffffffffffff167fddf252ad1be2c89b69c2b068fc378daa952ba7f163c4a11628f55a4df523b3ef60405160405180910390a461111a8383836001611651565b505050565b611127610cd0565b73ffffffffffffffffffffffffffffffffffffffff166111456108da565b73ffffffffffffffffffffffffffffffffffffffff161461119b576040517f08c379a000000000000000000000000000000000000000000000000000000000815260040161119290612a64565b60405180910390fd5b565b60006002600083815260200190815260200160002060009054906101000a900473ffffffffffffffffffffffffffffffffffffffff169050919050565b6000600660009054906101000a900473ffffffffffffffffffffffffffffffffffffffff16905081600660006101000a81548173ffffffffffffffffffffffffffffffffffffffff021916908373ffffffffffffffffffffffffffffffffffffffff1602179055508173ffffffffffffffffffffffffffffffffffffffff168173ffffffffffffffffffffffffffffffffffffffff167f8be0079c531659141344cd1fd0a4f28419497f9722a3daafe3b4186f6b6457e060405160405180910390a35050565b6001816000016000828254019250508190555050565b600081600001549050919050565b6112de828260405180602001604052806000815250611657565b5050565b8173ffffffffffffffffffffffffffffffffffffffff168373ffffffffffffffffffffffffffffffffffffffff1603611350576040517f08c379a000000000000000000000000000000000000000000000000000000000815260040161134790612ad0565b60405180910390fd5b80600560008573ffffffffffffffffffffffffffffffffffffffff1673ffffffffffffffffffffffffffffffffffffffff16815260200190815260200160002060008473ffffffffffffffffffffffffffffffffffffffff1673ffffffffffffffffffffffffffffffffffffffff16815260200190815260200160002060006101000a81548160ff0219169083151502179055508173ffffffffffffffffffffffffffffffffffffffff168373ffffffffffffffffffffffffffffffffffffffff167f17307eab39ab6107e8899845ad3d59bd9653f200f220920489ca2b5937696c31836040516114419190611cb4565b60405180910390a3505050565b611459848484610e26565b611465848484846116b2565b6114a4576040517f08c379a000000000000000000000000000000000000000000000000000000000815260040161149b90612b62565b60405180910390fd5b50505050565b6060600880546114b99061229f565b80601f01602080910402602001604051908101604052809291908181526020018280546114e59061229f565b80156115325780601f1061150757610100808354040283529160200191611532565b820191906000526020600020905b81548152906001019060200180831161151557829003601f168201915b5050505050905090565b60606000600161154b84611839565b01905060008167ffffffffffffffff81111561156a57611569611eff565b5b6040519080825280601f01601f19166020018201604052801561159c5781602001600182028036833780820191505090505b509050600082602001820190505b6001156115ff578080600190039150507f3031323334353637383961626364656600000000000000000000000000000000600a86061a8153600a85816115f3576115f2612b82565b5b049450600085036115aa575b819350505050919050565b60008073ffffffffffffffffffffffffffffffffffffffff1661162c8361119d565b73ffffffffffffffffffffffffffffffffffffffff1614159050919050565b50505050565b50505050565b611661838361198c565b61166e60008484846116b2565b6116ad576040517f08c379a00000000000000000000000000000000000000000000000000000000081526004016116a490612b62565b60405180910390fd5b505050565b60006116d38473ffffffffffffffffffffffffffffffffffffffff16611ba9565b1561182c578373ffffffffffffffffffffffffffffffffffffffff1663150b7a026116fc610cd0565b8786866040518563ffffffff1660e01b815260040161171e9493929190612c06565b6020604051808303816000875af192505050801561175a57506040513d601f19601f820116820180604052508101906117579190612c67565b60015b6117dc573d806000811461178a576040519150601f19603f3d011682016040523d82523d6000602084013e61178f565b606091505b5060008151036117d4576040517f08c379a00000000000000000000000000000000000000000000000000000000081526004016117cb90612b62565b60405180910390fd5b805181602001fd5b63150b7a0260e01b7bffffffffffffffffffffffffffffffffffffffffffffffffffffffff1916817bffffffffffffffffffffffffffffffffffffffffffffffffffffffff191614915050611831565b600190505b949350505050565b600080600090507a184f03e93ff9f4daa797ed6e38ed64bf6a1f0100000000000000008310611897577a184f03e93ff9f4daa797ed6e38ed64bf6a1f010000000000000000838161188d5761188c612b82565b5b0492506040810190505b6d04ee2d6d415b85acef810000000083106118d4576d04ee2d6d415b85acef810000000083816118ca576118c9612b82565b5b0492506020810190505b662386f26fc10000831061190357662386f26fc1000083816118f9576118f8612b82565b5b0492506010810190505b6305f5e100831061192c576305f5e100838161192257611921612b82565b5b0492506008810190505b612710831061195157612710838161194757611946612b82565b5b0492506004810190505b60648310611974576064838161196a57611969612b82565b5b0492506002810190505b600a8310611983576001810190505b80915050919050565b600073ffffffffffffffffffffffffffffffffffffffff168273ffffffffffffffffffffffffffffffffffffffff16036119fb576040517f08c379a00000000000000000000000000000000000000000000000000000000081526004016119f290612ce0565b60405180910390fd5b611a048161160a565b15611a44576040517f08c379a0000000000000000000000000000000000000000000000000000000008152600401611a3b90612d4c565b60405180910390fd5b611a5260008383600161164b565b611a5b8161160a565b15611a9b576040517f08c379a0000000000000000000000000000000000000000000000000000000008152600401611a9290612d4c565b60405180910390fd5b6001600360008473ffffffffffffffffffffffffffffffffffffffff1673ffffffffffffffffffffffffffffffffffffffff16815260200190815260200160002060008282540192505081905550816002600083815260200190815260200160002060006101000a81548173ffffffffffffffffffffffffffffffffffffffff021916908373ffffffffffffffffffffffffffffffffffffffff160217905550808273ffffffffffffffffffffffffffffffffffffffff16600073ffffffffffffffffffffffffffffffffffffffff167fddf252ad1be2c89b69c2b068fc378daa952ba7f163c4a11628f55a4df523b3ef60405160405180910390a4611ba5600083836001611651565b5050565b6000808273ffffffffffffffffffffffffffffffffffffffff163b119050919050565b6000819050919050565b611bdf81611bcc565b82525050565b6000602082019050611bfa6000830184611bd6565b92915050565b6000604051905090565b600080fd5b600080fd5b60007fffffffff0000000000000000000000000000000000000000000000000000000082169050919050565b611c4981611c14565b8114611c5457600080fd5b50565b600081359050611c6681611c40565b92915050565b600060208284031215611c8257611c81611c0a565b5b6000611c9084828501611c57565b91505092915050565b60008115159050919050565b611cae81611c99565b82525050565b6000602082019050611cc96000830184611ca5565b92915050565b600081519050919050565b600082825260208201905092915050565b60005b83811015611d09578082015181840152602081019050611cee565b60008484015250505050565b6000601f19601f8301169050919050565b6000611d3182611ccf565b611d3b8185611cda565b9350611d4b818560208601611ceb565b611d5481611d15565b840191505092915050565b60006020820190508181036000830152611d798184611d26565b905092915050565b611d8a81611bcc565b8114611d9557600080fd5b50565b600081359050611da781611d81565b92915050565b600060208284031215611dc357611dc2611c0a565b5b6000611dd184828501611d98565b91505092915050565b600073ffffffffffffffffffffffffffffffffffffffff82169050919050565b6000611e0582611dda565b9050919050565b611e1581611dfa565b82525050565b6000602082019050611e306000830184611e0c565b92915050565b611e3f81611dfa565b8114611e4a57600080fd5b50565b600081359050611e5c81611e36565b92915050565b60008060408385031215611e7957611e78611c0a565b5b6000611e8785828601611e4d565b9250506020611e9885828601611d98565b9150509250929050565b600080600060608486031215611ebb57611eba611c0a565b5b6000611ec986828701611e4d565b9350506020611eda86828701611e4d565b9250506040611eeb86828701611d98565b9150509250925092565b600080fd5b600080fd5b7f4e487b7100000000000000000000000000000000000000000000000000000000600052604160045260246000fd5b611f3782611d15565b810181811067ffffffffffffffff82111715611f5657611f55611eff565b5b80604052505050565b6000611f69611c00565b9050611f758282611f2e565b919050565b600067ffffffffffffffff821115611f9557611f94611eff565b5b611f9e82611d15565b9050602081019050919050565b82818337600083830152505050565b6000611fcd611fc884611f7a565b611f5f565b905082815260208101848484011115611fe957611fe8611efa565b5b611ff4848285611fab565b509392505050565b600082601f83011261201157612010611ef5565b5b8135612021848260208601611fba565b91505092915050565b6000602082840312156120405761203f611c0a565b5b600082013567ffffffffffffffff81111561205e5761205d611c0f565b5b61206a84828501611ffc565b91505092915050565b60006020828403121561208957612088611c0a565b5b600061209784828501611e4d565b91505092915050565b6120a981611c99565b81146120b457600080fd5b50565b6000813590506120c6816120a0565b92915050565b600080604083850312156120e3576120e2611c0a565b5b60006120f185828601611e4d565b9250506020612102858286016120b7565b9150509250929050565b600067ffffffffffffffff82111561212757612126611eff565b5b61213082611d15565b9050602081019050919050565b600061215061214b8461210c565b611f5f565b90508281526020810184848401111561216c5761216b611efa565b5b612177848285611fab565b509392505050565b600082601f83011261219457612193611ef5565b5b81356121a484826020860161213d565b91505092915050565b600080600080608085870312156121c7576121c6611c0a565b5b60006121d587828801611e4d565b94505060206121e687828801611e4d565b93505060406121f787828801611d98565b925050606085013567ffffffffffffffff81111561221857612217611c0f565b5b6122248782880161217f565b91505092959194509250565b6000806040838503121561224757612246611c0a565b5b600061225585828601611e4d565b925050602061226685828601611e4d565b9150509250929050565b7f4e487b7100000000000000000000000000000000000000000000000000000000600052602260045260246000fd5b600060028204905060018216806122b757607f821691505b6020821081036122ca576122c9612270565b5b50919050565b7f4552433732313a20617070726f76616c20746f2063757272656e74206f776e6560008201527f7200000000000000000000000000000000000000000000000000000000000000602082015250565b600061232c602183611cda565b9150612337826122d0565b604082019050919050565b6000602082019050818103600083015261235b8161231f565b9050919050565b7f4552433732313a20617070726f76652063616c6c6572206973206e6f7420746f60008201527f6b656e206f776e6572206f7220617070726f76656420666f7220616c6c000000602082015250565b60006123be603d83611cda565b91506123c982612362565b604082019050919050565b600060208201905081810360008301526123ed816123b1565b9050919050565b7f4552433732313a2063616c6c6572206973206e6f7420746f6b656e206f776e6560008201527f72206f7220617070726f76656400000000000000000000000000000000000000602082015250565b6000612450602d83611cda565b915061245b826123f4565b604082019050919050565b6000602082019050818103600083015261247f81612443565b9050919050565b60008190508160005260206000209050919050565b60006020601f8301049050919050565b600082821b905092915050565b6000600883026124e87fffffffffffffffffffffffffffffffffffffffffffffffffffffffffffffffff826124ab565b6124f286836124ab565b95508019841693508086168417925050509392505050565b6000819050919050565b600061252f61252a61252584611bcc565b61250a565b611bcc565b9050919050565b6000819050919050565b61254983612514565b61255d61255582612536565b8484546124b8565b825550505050565b600090565b612572612565565b61257d818484612540565b505050565b5b818110156125a15761259660008261256a565b600181019050612583565b5050565b601f8211156125e6576125b781612486565b6125c08461249b565b810160208510156125cf578190505b6125e36125db8561249b565b830182612582565b50505b505050565b600082821c905092915050565b6000612609600019846008026125eb565b1980831691505092915050565b600061262283836125f8565b9150826002028217905092915050565b61263b82611ccf565b67ffffffffffffffff81111561265457612653611eff565b5b61265e825461229f565b6126698282856125a5565b600060209050601f83116001811461269c576000841561268a578287015190505b6126948582612616565b8655506126fc565b601f1984166126aa86612486565b60005b828110156126d2578489015182556001820191506020850194506020810190506126ad565b868310156126ef57848901516126eb601f8916826125f8565b8355505b6001600288020188555050505b505050505050565b7f4552433732313a20696e76616c696420746f6b656e2049440000000000000000600082015250565b600061273a601883611cda565b915061274582612704565b602082019050919050565b600060208201905081810360008301526127698161272d565b9050919050565b7f4552433732313a2061646472657373207a65726f206973206e6f74206120766160008201527f6c6964206f776e65720000000000000000000000000000000000000000000000602082015250565b60006127cc602983611cda565b91506127d782612770565b604082019050919050565b600060208201905081810360008301526127fb816127bf565b9050919050565b600081905092915050565b600061281882611ccf565b6128228185612802565b9350612832818560208601611ceb565b80840191505092915050565b600061284a828561280d565b9150612856828461280d565b91508190509392505050565b7f4f776e61626c653a206e6577206f776e657220697320746865207a65726f206160008201527f6464726573730000000000000000000000000000000000000000000000000000602082015250565b60006128be602683611cda565b91506128c982612862565b604082019050919050565b600060208201905081810360008301526128ed816128b1565b9050919050565b7f4552433732313a207472616e736665722066726f6d20696e636f72726563742060008201527f6f776e6572000000000000000000000000000000000000000000000000000000602082015250565b6000612950602583611cda565b915061295b826128f4565b604082019050919050565b6000602082019050818103600083015261297f81612943565b9050919050565b7f4552433732313a207472616e7366657220746f20746865207a65726f2061646460008201527f7265737300000000000000000000000000000000000000000000000000000000602082015250565b60006129e2602483611cda565b91506129ed82612986565b604082019050919050565b60006020820190508181036000830152612a11816129d5565b9050919050565b7f4f776e61626c653a2063616c6c6572206973206e6f7420746865206f776e6572600082015250565b6000612a4e602083611cda565b9150612a5982612a18565b602082019050919050565b60006020820190508181036000830152612a7d81612a41565b9050919050565b7f4552433732313a20617070726f766520746f2063616c6c657200000000000000600082015250565b6000612aba601983611cda565b9150612ac582612a84565b602082019050919050565b60006020820190508181036000830152612ae981612aad565b9050919050565b7f4552433732313a207472616e7366657220746f206e6f6e20455243373231526560008201527f63656976657220696d706c656d656e7465720000000000000000000000000000602082015250565b6000612b4c603283611cda565b9150612b5782612af0565b604082019050919050565b60006020820190508181036000830152612b7b81612b3f565b9050919050565b7f4e487b7100000000000000000000000000000000000000000000000000000000600052601260045260246000fd5b600081519050919050565b600082825260208201905092915050565b6000612bd882612bb1565b612be28185612bbc565b9350612bf2818560208601611ceb565b612bfb81611d15565b840191505092915050565b6000608082019050612c1b6000830187611e0c565b612c286020830186611e0c565b612c356040830185611bd6565b8181036060830152612c478184612bcd565b905095945050505050565b600081519050612c6181611c40565b92915050565b600060208284031215612c7d57612c7c611c0a565b5b6000612c8b84828501612c52565b91505092915050565b7f4552433732313a206d696e7420746f20746865207a65726f2061646472657373600082015250565b6000612cca602083611cda565b9150612cd582612c94565b602082019050919050565b60006020820190508181036000830152612cf981612cbd565b9050919050565b7f4552433732313a20746f6b656e20616c7265616479206d696e74656400000000600082015250565b6000612d36601c83611cda565b9150612d4182612d00565b602082019050919050565b60006020820190508181036000830152612d6581612d29565b905091905056fea2646970667358221220109081cb3441a648bdd604964db4030a5c8f35f1a0d990d80e51a0a0fcdc4b7664736f6c63430008120033",
  "linkReferences": {},
  "deployedLinkReferences": {}
}